:020000040800F2
:1000000000C0002061300008CD280008D528000875
:10001000DD280008E5280008ED28000800000000A1
:10002000000000000000000000000000F5280008AB
:1000300001290008000000000D2900081929000806
:10004000A9300008A9300008A9300008A93000082C
:10005000A9300008A9300008A9300008A93000081C
:1000600025290008A9300008A9300008A930000897
:10007000A9300008A9300008A9300008A9300008FC
:10008000A9300008A9300008A9300008A9300008EC
:10009000A9300008A9300008A9300008A9300008DC
:1000A000A9300008A9300008A93000085529000827
:1000B000A9300008A930000869290008A930000803
:1000C000A9300008A9300008A9300008A9300008AC
:1000D000A9300008A9300008A93000087D290008CF
:1000E000A9300008A9300008A9300008A93000088C
:1000F000A9300008A9300008A9300008A93000087C
:10010000A9300008A9300008A9300008A93000086B
:10011000A9300008A9300008A9300008A93000085B
:10012000A9300008A9300008A9300008A93000084B
:1001300000000000000000000000000000000000BF
:1001400000000000000000000000000000000000AF
:10015000000000000000000000000000000000009F
:10016000000000000000000000000000000000008F
:10017000000000000000000000000000000000007F
:10018000000000000000000000000000000000006F
:10019000000000000000000000000000000000005F
:1001A000000000000000000000000000000000004F
:1001B000000000000000000000000000000000003F
:1001C000000000000000000000000000000000002F
:1001D000000000000000000000000000000000001F
:0401E0005FF8E0F1F3
:1001E80010B5054C237833B9044B13B10448AFF369
:1001F80000800123237010BDD401002000000000FE
:1002080010C4000808B5034B1BB103490348AFF3FA
:10021800008008BD00000000D801002010C40008BC
:10022800034613F8012B002AFBD1181A013870472E
:100238004FF0FF0C1CEAD0521EBF1CEAD15392EAC1
:100248000C0F93EA0C0F6FD01A4480EA010C40029D
:1002580018BF5FEA41211ED04FF0006343EA5010F7
:1002680043EA5111A0FB01310CF00040B1F5000F39
:100278003EBF490041EAD3715B0040EA010062F1E8
:100288007F02FD2A1DD8B3F1004F40EBC25008BFD2
:1002980020F00100704790F0000F0CF0004C08BFF0
:1002A80049024CEA502040EA51207F3AC2BFD2F1BD
:1002B800FF0340EAC250704740F400004FF00003CB
:1002C800013A5DDC12F1190FDCBF00F00040704705
:1002D800C2F10002410021FA02F1C2F1200200FA43
:1002E80002FC5FEA310040F1000053EA4C0308BF0A
:1002F80020EADC70704792F0000F00F0004C02BF5B
:10030800400010F4000F013AF9D040EA0C0093F0D5
:10031800000F01F0004C02BF490011F4000F013B2F
:10032800F9D041EA0C018FE70CEAD15392EA0C0F9D
:1003380018BF93EA0C0F0AD030F0004C18BF31F008
:10034800004CD8D180EA010000F00040704790F0DE
:10035800000F17BF90F0004F084691F0000F91F082
:10036800004F14D092EA0C0F01D142020FD193EA48
:100378000C0F03D14B0218BF084608D180EA0100D0
:1003880000F0004040F0FE4040F40000704740F0AC
:10039800FE4040F44000704781F0004102E000BF99
:1003A80083F0004330B54FEA41044FEA430594EA2D
:1003B800050F08BF90EA020F1FBF54EA000C55EA68
:1003C800020C7FEA645C7FEA655C00F0E2804FEA39
:1003D8005454D4EB5555B8BF6D420CDD2C4480EA1B
:1003E800020281EA030382EA000083EA010180EA4B
:1003F800020281EA0303362D88BF30BD11F0004F99
:100408004FEA01314FF4801C4CEA113102D04042CE
:1004180061EB410113F0004F4FEA03334CEA133309
:1004280002D0524263EB430394EA050F00F0A78021
:10043800A4F10104D5F1200E0DDB02FA0EFC22FA1C
:1004480005F2801841F1000103FA0EF2801843FA10
:1004580005F359410EE0A5F120050EF1200E012A01
:1004680003FA0EFC28BF4CF0020C43FA05F3C0183F
:1004780051EBE37101F0004507D54FF0000EDCF1B8
:10048800000C7EEB00006EEB0101B1F5801F1BD361
:10049800B1F5001F0CD349085FEA30004FEA3C0C65
:1004A80004F101044FEA445212F5800F80F09A805B
:1004B800BCF1004F08BF5FEA500C50F1000041EB5F
:1004C800045141EA050130BD5FEA4C0C404141EB63
:1004D8000101013C28BFB1F5801FE9D291F0000F5E
:1004E80004BF01460020B1FA81F308BF2033A3F10D
:1004F8000B03B3F120020CDA0C3208DD02F1140C04
:10050800C2F10C0201FA0CF021FA02F10CE002F13E
:100518001402D8BFC2F1200C01FA02F120FA0CFC37
:10052800DCBF41EA0C019040E41AA2BF01EB045180
:10053800294330BD6FEA04041F3C1CDA0C340EDC7E
:1005480004F11404C4F1200220FA04F001FA02F3C1
:1005580040EA030021FA04F345EA030130BDC4F17F
:100568000C04C4F1200220FA02F001FA04F340EA74
:100578000300294630BD21FA04F0294630BD94F025
:10058800000F83F4801306BF81F480110134013D0C
:100598004EE77FEA645C18BF7FEA655C29D094EA7D
:1005A800050F08BF90EA020F05D054EA000C04BFFB
:1005B8001946104630BD91EA030F1EBF00210020E6
:1005C80030BD5FEA545C05D14000494128BF41F085
:1005D800004130BD14F580043CBF01F5801130BDE9
:1005E80001F0004545F0FE4141F470014FF0000074
:1005F80030BD7FEA645C1ABF194610467FEA655C25
:100608001CBF0B46024650EA013406BF52EA0335C6
:1006180091EA030F41F4002130BD00BF90F0000FB4
:1006280004BF0021704730B54FF4806404F13204F0
:100638004FF000054FF0000150E700BF90F0000FA9
:1006480004BF0021704730B54FF4806404F13204D0
:1006580010F0004548BF40424FF000013EE700BFA0
:1006680042004FEAE2014FEA31014FEA02701FBF30
:1006780012F07F4393F07F4F81F06051704732F062
:100688007F4208BF704793F07F4F04BF41F40021B9
:10069800704730B54FF4607401F0004521F0004117
:1006A8001CE700BF50EA010208BF704730B54FF0A1
:1006B80000050AE050EA010208BF704730B511F0A2
:1006C800004502D5404261EB41014FF4806404F1DA
:1006D80032045FEA915C3FF4D8AE4FF003025FEA60
:1006E800DC0C18BF03325FEADC0C18BF033202EBE4
:1006F800DC02C2F1200300FA03FC20FA02F001FA3E
:1007080003FE40EA0E0021FA02F11444BDE600BFE0
:1007180070B54FF0FF0C4CF4E06C1CEA11541DBF8F
:100728001CEA135594EA0C0F95EA0C0F00F0DEF85A
:100738002C4481EA030621EA4C5123EA4C5350EA3F
:10074800013518BF52EA033541F4801143F4801390
:1007580038D0A0FB02CE4FF00005E1FB02E506F021
:100768000042E0FB03E54FF00006E1FB03569CF076
:10077800000F18BF4EF0010EA4F1FF04B6F5007F7C
:1007880064F5407404D25FEA4E0E6D4146EB0606EE
:1007980042EAC62141EA55514FEAC52040EA5E5077
:1007A8004FEACE2EB4F1FD0C88BFBCF5E06F1ED821
:1007B800BEF1004F08BF5FEA500E50F1000041EB58
:1007C800045170BD06F0004646EA010140EA020005
:1007D80081EA0301B4EB5C04C2BFD4EB0C0541EA27
:1007E800045170BD41F480114FF0000E013C00F33C
:1007F800AB8014F1360FDEBF002001F0004170BD60
:10080800C4F10004203C35DA0C341BDC04F1140478
:10081800C4F1200500FA05F320FA04F001FA05F204
:1008280040EA020001F0004221F0004110EBD370D1
:1008380021FA04F642EB06015EEA430E08BF20EAFD
:10084800D37070BDC4F10C04C4F1200500FA04F3A0
:1008580020FA05F001FA04F240EA020001F0004132
:1008680010EBD37041F100015EEA430E08BF20EAA5
:10087800D37070BDC4F1200500FA05F24EEA020EED
:1008880020FA04F301FA05F243EA020321FA04F01C
:1008980001F0004121FA04F220EA020000EBD370D3
:1008A8005EEA430E08BF20EAD37070BD94F0000FD3
:1008B8000FD101F00046400041EB010111F4801F07
:1008C80008BF013CF7D041EA060195F0000F18BFB8
:1008D800704703F00046520043EB030313F4801FF4
:1008E80008BF013DF7D043EA0603704794EA0C0FAE
:1008F8000CEA135518BF95EA0C0F0CD050EA4106C4
:1009080018BF52EA4306D1D181EA030101F0004140
:100918004FF0000070BD50EA410606BF1046194668
:1009280052EA430619D094EA0C0F02D150EA013674
:1009380013D195EA0C0F05D152EA03361CBF1046B5
:1009480019460AD181EA030101F0004141F0FE4154
:1009580041F470014FF0000070BD41F0FE4141F4D8
:10096800780170BD70B54FF0FF0C4CF4E06C1CEAD8
:1009780011541DBF1CEA135594EA0C0F95EA0C0F8D
:1009880000F0A7F8A4EB050481EA030E52EA033548
:100998004FEA013100F088804FEA03334FF0805569
:1009A80045EA131343EA12634FEA022245EA111596
:1009B80045EA10654FEA00260EF000419D4208BF47
:1009C800964244F1FD0404F5407402D25B084FEAF4
:1009D8003202B61A65EB03055B084FEA32024FF4A0
:1009E80080104FF4002CB6EB020E75EB030E22BFFD
:1009F800B61A754640EA0C005B084FEA3202B6EBBD
:100A0800020E75EB030E22BFB61A754640EA5C006B
:100A18005B084FEA3202B6EB020E75EB030E22BFFB
:100A2800B61A754640EA9C005B084FEA3202B6EBFC
:100A3800020E75EB030E22BFB61A754640EADC00BB
:100A480055EA060E18D04FEA051545EA16754FEA1D
:100A580006164FEAC30343EA52734FEAC2025FEA3B
:100A68001C1CC0D111F4801F0BD141EA00014FF0CA
:100A780000004FF0004CB6E711F4801F04BF01439B
:100A88000020B4F1FD0C88BFBCF5E06F3FF6AFAEB7
:100A9800B5EB030C04BFB6EB020C5FEA500C50F147
:100AA800000041EB045170BD0EF0004E4EEA1131CA
:100AB80014EB5C04C2BFD4EB0C0541EA045170BDD1
:100AC80041F480114FF0000E013C90E645EA060E15
:100AD8008DE60CEA135594EA0C0F08BF95EA0C0F43
:100AE8003FF43BAF94EA0C0F0AD150EA01347FF48B
:100AF80034AF95EA0C0F7FF425AF104619462CE762
:100B080095EA0C0F06D152EA03353FF4FDAE1046C4
:100B1800194622E750EA410618BF52EA43067FF415
:100B2800C5AE50EA41047FF40DAF52EA43057FF4A5
:100B3800EBAE12E74FF0FF3C06E000BF4FF0010CB0
:100B480002E000BF4FF0010C4DF804CD4FEA410C14
:100B58007FEA6C5C4FEA430C18BF7FEA6C5C1BD0E1
:100B680001B050EA410C0CBF52EA430C91EA030F62
:100B780002BF90EA020F0020704710F1000F91EABF
:100B8800030F58BF994208BF90422CBFD8176FEA8D
:100B9800E37040F0010070474FEA410C7FEA6C5C5B
:100BA80002D150EA013C07D14FEA430C7FEA6C5C62
:100BB800D6D152EA033CD3D05DF8040B704700BF8E
:100BC8008446104662468C461946634600E000BFDC
:100BD80001B5FFF7B7FF002848BF10F1000F01BDAE
:100BE8004DF808EDFFF7F4FF0CBF012000205DF879
:100BF80008FB00BF4DF808EDFFF7EAFF34BF0120FE
:100C080000205DF808FB00BF4DF808EDFFF7E0FF96
:100C180094BF012000205DF808FB00BF4DF808EDE7
:100C2800FFF7CEFF94BF012000205DF808FB00BF4E
:100C38004DF808EDFFF7C4FF34BF012000205DF830
:100C480008FB00BF4FEA410C7FEA6C5C02D150EA16
:100C5800013C0AD14FEA430C7FEA6C5C02D152EAAC
:100C6800033C02D14FF0000070474FF0010070477D
:100C78004FEA410212F5001215D211D56FF47873BC
:100C8800B3EB625212D94FEAC12343F0004343EA5F
:100C9800505311F0004F23FA02F018BF404270473A
:100CA8004FF00000704750EA013005D111F00040C4
:100CB80008BF6FF0004070474FF00000704700BF5A
:100CC8004A0011D212F5001211D20DD56FF47873C3
:100CD800B3EB62520ED44FEAC12343F0004343EA18
:100CE800505323FA02F070474FF00000704750EA63
:100CF800013002D14FF0FF3070474FF000007047CD
:100D08004FEA4102B2F1E04324BFB3F5001CDCF125
:100D1800FE5C0DD901F0004C4FEAC0024CEA50705D
:100D2800B2F1004F40EB830008BF20F0010070478C
:100D380011F0804F21D113F13872BCBF01F000408F
:100D4800704741F480114FEA5252C2F11802C2F1C1
:100D5800200C10FA0CF320FA02F018BF40F0010042
:100D68004FEAC1234FEAD32303FA0CFC40EA0C00F4
:100D780023FA02F34FEA4303CCE77FEA625307D131
:100D880050EA01331EBF4FF0FE4040F44000704768
:100D980001F0004040F0FE4040F40000704700BF02
:100DA80042000ED2B2F1FE4F0BD34FF09E03B3EBCD
:100DB800126209D44FEA002343F0004323FA02F0F9
:100DC80070474FF00000704712F1610F01D14202E5
:100DD80002D14FF0FF3070474FF00000704700BF5E
:100DE80038B50022002304460D46FFF703FF28B953
:100DF80020462946BDE8384000F00AB8204605F1EB
:100E0800004100F005F8404261EB410138BD00BFE8
:100E1800D0B500220B4B06460F46FFF779FCFFF7CB
:100E28004FFF0446FFF7FAFB0022074BFFF770FC61
:100E380002460B4630463946FFF7B2FAFFF740FF45
:100E48002146D0BD0000F03D0000F04180B500AF64
:100E580000224FF40071024803F09DFA00BF80BDE4
:100E68000008014080B500AF01224FF4007102482C
:100E780003F091FA00BF80BD0008014080B584B03E
:100E880000AF3B1D00221A605A609A60184B194A3D
:100E98001A60174B00229A60154B00221A73144BE4
:100EA80000221A75124B4FF46022DA61104B0022AF
:100EB8005A600F4B01221A610D4802F079F9034676
:100EC800002B01D001F0FBF801237B600123BB60FC
:100ED8000023FB603B1D1946054802F013FC03463E
:100EE800002B01D001F0EBF800BF1037BD4680BDE4
:100EF800F00100200024014080B588B000AF786080
:100F080007F1100300221A605A609A60DA607B6861
:100F18001B68144A934221D1134B9B69124A43F42C
:100F280000739361104B9B6903F40073FB60FB68CB
:100F38000D4B9B690C4A43F0040393610A4B9B6970
:100F480003F00403BB60BB6802233B6103237B619E
:100F580007F110031946054803F072F800BF20375F
:100F6800BD4680BD00240140001002400008014039
:100F780080B500AF0C4802F005FA4FF4FA710A4840
:100F880002F0AEFA084802F0B5FC034603F4007319
:100F9800002B05D0044802F0A9FB03469BB200E0F1
:100FA8000023184680BD00BFF001002080B586B040
:100FB80000AF78601C4B9B687B6102F0CBF838610E
:100FC8007A681346DB001344DB00FB60FA687B6930
:100FD8009A4215D900BF02F0BDF802463B69934218
:100FE800F9D07A69FB68D31A03F58C3303F5A0733B
:100FF800BB6000BF0C4B9B68BA689A42FAD30FE0FB
:101008007A69FB68D31ABB6000BF074B9B68BA6854
:101018009A4205D202F09EF802463B699342F4D008
:1010280000BF1837BD4680BD10E000E080B500AFB6
:1010380000220421084803F0AEF940F2EE20FFF741
:10104800B5FF01220421044803F0A5F90F20FFF79A
:10105800ADFF00BF80BD00BF0008014080B500AFF4
:1010680000220821084803F096F940F2EE20FFF725
:101078009DFF01220821044803F08DF90F20FFF796
:1010880095FF00BF80BD00BF0008014080B500AFDC
:1010980000221021084803F07EF940F2EE20FFF705
:1010A80085FF01221021044803F075F90F20FFF78E
:1010B8007DFF00BF80BD00BF0008014080B582B041
:1010C80000AF0023FB710023BB7105E0FB790133FE
:1010D800FB710120FFF76AFF0421164803F044F969
:1010E8000346002B02D0FB79C72BEFD9FB79C72B1E
:1010F80002D90123BB7117E00023FB7105E0FB79DE
:101108000133FB710120FFF751FF0421094803F067
:101118002BF90346002B02D1FB79EF2BEFD9FB7992
:10112800EF2B01D90123BB71BB7918460837BD469F
:1011380080BD00BF0008014080B582B000AF002329
:10114800FB710023BB7105E0FB790133FB710120C2
:10115800FFF72CFF0821164803F006F90346002B79
:1011680002D0FB79C72BEFD9FB79C72B02D9012312
:10117800BB7117E00023FB7105E0FB790133FB71BC
:101188000120FFF713FF0821094803F0EDF8034693
:10119800002B02D1FB79EF2BEFD9FB79EF2B01D98B
:1011A8000123BB71BB7918460837BD4680BD00BF17
:1011B8000008014080B582B000AF0023FB71002316
:1011C800BB7105E0FB790133FB710120FFF7EEFEEF
:1011D8001021164803F0C8F80346002B02D0FB790B
:1011E800C72BEFD9FB79C72B02D90123BB7117E0B5
:1011F8000023FB7105E0FB790133FB710120FFF748
:10120800D5FE1021094803F0AFF80346002B02D1A0
:10121800FB79EF2BEFD9FB79EF2B01D90123BB71B8
:10122800BB7918460837BD4680BD00BF000801409D
:1012380080B582B000AF0023FB71002204210F4863
:1012480003F0A9F80220FFF7B1FE012204210B48A0
:1012580003F0A1F80C20FFF7A9FE0421074803F0CA
:1012680083F80346002B01D00123FB713220FFF7DE
:101278009DFEFB7918460837BD4680BD0008014031
:1012880080B582B000AF0023FB71002208210F480F
:1012980003F081F80220FFF789FE012208210B489C
:1012A80003F079F80C20FFF781FE0821074803F0C6
:1012B8005BF80346002B01D00123FB713220FFF7B6
:1012C80075FEFB7918460837BD4680BD0008014009
:1012D80080B582B000AF0023FB71002210210F48B7
:1012E80003F059F80220FFF761FE012210210B4894
:1012F80003F051F80C20FFF759FE1021074803F0BE
:1013080033F80346002B01D00123FB713220FFF78D
:101318004DFEFB7918460837BD4680BD00080140E0
:1013280080B582B000AF0023BB710023FB7110E0D1
:10133800FFF77EFF03467B717A79FB7902FA03F3A4
:101348005AB297F9063013435BB2BB71FB7901338C
:10135800FB71FB79072BEBD9BB7918460837BD46DB
:1013680080BD80B582B000AF0023BB710023FB7144
:1013780010E0FFF785FF03467B717A79FB7902FA63
:1013880003F35AB297F9063013435BB2BB71FB798A
:101398000133FB71FB79072BEBD9BB79184608376A
:1013A800BD4680BD80B582B000AF0023BB7100236D
:1013B800FB7110E0FFF78CFF03467B717A79FB79AC
:1013C80002FA03F35AB297F9063013435BB2BB71C2
:1013D800FB790133FB71FB79072BEBD9BB791846F5
:1013E8000837BD4680BD000080B584B000AF034615
:1013F800FB710123FB732BE0FB7903F00103002B46
:1014080010D000220421164802F0C5FF0220FFF781
:10141800CDFD01220421124802F0BDFF3C20FFF758
:10142800C5FD0FE0002204210D4802F0B4FF3C2066
:10143800FFF7BCFD01220421094802F0ACFF02209D
:10144800FFF7B4FDFB795B08FB71FB7B0133FB7392
:10145800FB7B082BD0D900BF00BF1037BD4680BD2D
:101468000008014080B584B000AF0346FB7101233A
:10147800FB732BE0FB7903F00103002B10D0002253
:101488000821164802F087FF0220FFF78FFD01228E
:101498000821124802F07FFF3C20FFF787FD0FE08C
:1014A800002208210D4802F076FF3C20FFF77EFD60
:1014B80001220821094802F06EFF0220FFF776FD9D
:1014C800FB795B08FB71FB7B0133FB73FB7B082B10
:1014D800D0D900BF00BF1037BD4680BD000801400D
:1014E80080B584B000AF0346FB710123FB732BE08A
:1014F800FB7903F00103002B10D0002210211648BD
:1015080002F049FF0220FFF751FD01221021124885
:1015180002F041FF3C20FFF749FD0FE000221021B7
:101528000D4802F038FF3C20FFF740FD0122102152
:10153800094802F030FF0220FFF738FDFB795B080D
:10154800FB71FB7B0133FB73FB7B082BD0D900BFFE
:1015580000BF1037BD4680BD0008014080B500AF10
:10156800FFF764FDFFF7AAFDCC20FFF73DFF4420FD
:10157800FFF73AFF00BF80BD80B500AFFFF76EFDF3
:10158800FFF7DAFDCC20FFF76DFF4420FFF76AFF75
:1015980000BF80BD80B500AFFFF778FDFFF70AFEFA
:1015A800CC20FFF79DFF4420FFF79AFF00BF80BDC6
:1015B80080B586B000AF114B9B69104A43F0040315
:1015C80093610E4B9B6903F004037B607B680423E3
:1015D800BB601123FB6001233B6103237B6107F19F
:1015E80008031946064802F02BFDFFF71FFDFFF719
:1015F80065FD034618461837BD4680BD00100240F9
:101608000008014080B582B000AF0123FB71FFF7ED
:10161800A5FFFFF70BFDFFF751FDCC20FFF7E4FE18
:10162800BE20FFF7E1FEFFF77BFE0346BB71FFF725
:1016380077FE03467B717B79072B0AD97B79DB43DD
:101648007B71BB79DB43BB71BB790133BB71002371
:10165800FB717B797B807B881B027B80BB799AB28C
:101668007B8813449BB27B80B7F902301846FEF79B
:10167800E5FF4FF000020C4BFFF74AF802460B4615
:1016880010461946FFF7F4FA03467B80FB79002BD6
:1016980003D17B885B429BB27B80B7F90230184646
:1016A8000837BD4680BD00BF0000E43F80B582B06A
:1016B80000AF0123FB71FFF75FFFFFF7CFFCFFF7D8
:1016C8003BFDCC20FFF7CEFEBE20FFF7CBFEFFF799
:1016D80048FE0346BB71FFF744FE03467B717B79E6
:1016E800072B0AD97B79DB437B71BB79DB43BB7161
:1016F800BB790133BB710023FB717B797B807B88CD
:101708001B027B80BB799AB27B8813449BB27B8097
:10171800B7F902301846FEF791FF4FF000020C4B64
:10172800FEF7F6FF02460B4610461946FFF7A0FAE9
:1017380003467B80FB79002B03D17B885B429BB2FD
:101748007B80B7F9023018460837BD4680BD00BF18
:101758000000E43F80B582B000AF0123FB71FFF7C2
:1017680019FFFFF793FCFFF725FDCC20FFF7B8FE24
:10177800BE20FFF7B5FEFFF715FE0346BB71FFF766
:1017880011FE03467B717B79072B0AD97B79DB43F2
:101798007B71BB79DB43BB71BB790133BB71002320
:1017A800FB717B797B807B881B027B80BB799AB23B
:1017B8007B8813449BB27B80B7F902301846FEF74A
:1017C8003DFF4FF000020C4BFEF7A2FF02460B460E
:1017D80010461946FFF74CFA03467B80FB79002B2D
:1017E80003D17B885B429BB27B80B7F902301846F5
:1017F8000837BD4680BD00BF0000E43F80B588B013
:1018080000AF07F1100300221A605A609A60DA608C
:101818004C4B9B694B4A43F020039361494B9B69AE
:1018280003F02003FB60FB68464B9B69454A43F085
:1018380010039361434B9B6903F01003BB60BB68C3
:10184800404B9B693F4A43F0040393613D4B9B69BE
:1018580003F004037B607B683A4B9B69394A43F089
:1018680008039361374B9B6903F008033B603B68AF
:1018780000224FF44E71344802F08DFD00224FF4DF
:101888000771324802F087FD04233B61304B7B61CE
:101898000123BB6107F1100319462B4802F0D0FB66
:1018A8004FF44E733B6101237B610023BB6102232C
:1018B800FB6107F110031946234802F0C1FB1C2302
:1018C8003B6111237B610123BB610323FB6107F1AA
:1018D800100319461D4802F0B3FBE0233B610023C7
:1018E8007B610123BB6107F110031946174802F019
:1018F800A7FB4FF203333B6100237B610023BB61ED
:1019080007F110031946134802F09AFB4FF40073CD
:101918003B6101237B610223BB610223FB6107F169
:1019280010031946094802F08BFB00220121082008
:1019380002F00DFA082002F026FA00BF2037BD4653
:1019480080BD00BF001002400010014000080140A7
:1019580000002110000C014080B500AF124B134A63
:101968001A60114B124A5A600F4B00229A600E4BB4
:101978000022DA600C4B4FF480421A610A4B0022B5
:101988005A61094B00229A61074B0022DA61064B23
:1019980000221A62044802F039FD0346002B01D0E8
:1019A80000F08DFB00BF80BD2002002000580040E1
:1019B800801A060080B588B000AF786007F1100380
:1019C80000221A605A609A60DA607B681B68164ABF
:1019D800934224D1154B9B69144A43F00803936141
:1019E800124B9B6903F00803FB60FB684FF44063EC
:1019F8003B6112237B610323FB6107F11003194646
:101A08000B4802F01DFB094BDB69084A43F48003CD
:101A1800D361064BDB6903F48003BB60BB6800BF7E
:101A28002037BD4680BD00BF00580040001002406E
:101A3800000C014080B487B000AF78607B68FB6021
:101A48000023FB7500233B6109E03B69FA681344F6
:101A58001A78FB7D1344FB753B6901333B613B6995
:101A6800082BF2DDFB7D18461C37BD4680BC70474D
:101A780080B588B000AF7B600346FB810B46BB8115
:101A88001346FB725A233B75FB891B0A9BB2DBB2D8
:101A98007B75FB89DBB2BB75BB891B0A9BB2DBB2CA
:101AA800FB75BB89DBB23B76FB7A7B767B681B0CCC
:101AB800DBB2BB767B681B0ADBB2FB767B68DBB2EA
:101AC8003B7707F114031846FFF7B4FF03467B770B
:101AD80007F1140164230A22034805F075FB00BFCF
:101AE8002037BD4680BD00BF8008002000000000F0
:101AF80080B582B000AF78607B681F4A934233D1CB
:101B08007B681B7F082B2FD108211B4804F028FE77
:101B180003461A46194B1A600C21174804F020FE98
:101B280003461A46164B1A60154B1A68134B1B6866
:101B3800D31A1846FEF782FD0DA3D3E90023FEF75A
:101B4800E7FD02460B46104619464FF000024FF0DB
:101B58008043FEF707FF02460B4610461946FFF77B
:101B6800CFF80346074A136000BF0837BD4680BD5B
:101B78009CC420B07268A13FA80700200003002081
:101B88000403002008030020F0B583B000AF78609C
:101B98007B680E4A934215D10D4B1C880D4B1D884E
:101BA8000D4B1E780D4B1B680D491846FEF740FB80
:101BB80003461846FFF7F4F80346324629462046FE
:101BC800FFF756FF00BF0C37BD46F0BD38080020B0
:101BD800120300201403002019030020080300202A
:101BE8000000204180B485B000AF0346FB800B465F
:101BF800BB8013467B80FB88FB81BA88FB899A42AD
:101C080001D9BB88FB817A88FB899A4201D97B88F4
:101C1800FB81FB8918461437BD4680BC704700001D
:101C280080B582B002AF01F03DFA00F0EBF9FFF7A2
:101C3800E5FDFFF791FEFFF721F901F07BF900F0D0
:101C48006BFF00F0EBFF01F069F8322001F08CFA2D
:101C580000F086FB322001F087FA854801F0F2FE99
:101C6800844803F05DFE0821824804F07BF80C21CB
:101C7800804804F045F9804803F0AAFE00217F4817
:101C880003F05EFF04217D4803F05AFFFFF790FC44
:101C980000F01CFAFFF7E6F8794B1B78012B20D1EE
:101CA800FFF7E0F8774B00221A7000F0D9FA764B6C
:101CB8001B78002B0BD1754B1B78002B07D1744B6D
:101CC8001B78002B03D1734B1B88312B09D9FFF7E5
:101CD800BDF800F0FBF96A4B00221A70694B01222B
:101CE8001A7001224FF400716B4802F054FB012076
:101CF80001F03AFA00224FF40071674802F04BFBFA
:101D08005C4B1B6800225A6205E0644B1B78013368
:101D1800DAB2624B1A70614B1B78132BF5D85F4B04
:101D280000221A70FFF76EFC03465D4A82FB03121D
:101D38009210DB17D31A1BB29AB25A4B1A80594B1E
:101D48001B8842F20F72934209D9564B19221A8006
:101D580005E0524B1B780133DAB2504B1A704F4BE7
:101D68001B78132BF5D84D4B00221A70FFF79EFCF9
:101D780003464B4A82FB03129210DB17D31A1BB29D
:101D88009AB2494B1A80484B1B8842F20F72934211
:101D980009D9454B19221A8005E0404B1B780133BD
:101DA800DAB23E4B1A703D4B1B78132BF5D83B4BE0
:101DB80000221A70FFF7CEFC0346394A82FB031251
:101DC8009210DB17D31A1BB29AB2384B1A80374BD2
:101DD8001B8842F20F72934202D9344B19221A809F
:101DE800304B1B88304A1188304A12881846FFF752
:101DF800F9FE03461A462E4B1A802D4B1B8842F2D9
:101E08000F72934202D92A4B19221A80FFF7B0F8B1
:101E180003461A46274BA3FB02235B099AB21D4BC4
:101E28001A802021244802F09FFA0346002B03D190
:101E3800154B01221A7002E0134B00221A70402140
:101E48001D4802F091FA0346002B03D10F4B0122E3
:101E58001A7002E00D4B00221A708021164802F019
:101E680083FA0346002B29D1094B01221A7028E076
:101E7800F0010020A807002038080020F007002003
:101E8800A2070020190300201603002017030020D2
:101E98001803002014030020001001401A0300203A
:101EA800676666660C0300200E03002010030020FE
:101EB800120300201F85EB51000801403A4B002215
:101EC8001A7000F0A9FA394B1B881A463849394864
:101ED80006F066FE00230093374B364A00210020A7
:101EE80000F096FC354B1B881A463549354806F0F4
:101EF80057FE00230093304B324A0821002000F09F
:101F080087FC314B1B881A463049314806F048FE99
:101F180000230093284B2E4A1021002000F078FC63
:101F28002C4B1B881A462C492C4806F039FE0023F6
:101F38000093214B294A1821002000F069FC284B06
:101F48001B681846FEF78CFB02460B4625492648B7
:101F580006F026FE00230093174B234A2021002079
:101F680000F056FC214B1B781A462149214806F0FF
:101F780017FE00230093104B1E4A2821002000F072
:101F880047FC1D4B1B781A461C491D4806F008FEE5
:101F980000230093084B1A4A3021002000F038FC37
:101FA80000F046FA78E600BF180300200C03002072
:101FB80028C400089C02002094C600080E030020D4
:101FC80030C40008B00200201003002038C4000804
:101FD800C40200201403002040C40008740200203A
:101FE800080300204CC400088802002019030020C0
:101FF8005CC40008D8020020A207002064C40008BE
:10200800EC02002080B596B000AF07F1300328221B
:102018000021184606F029FE07F11C0300221A6069
:102028005A609A60DA601A613B1D00221A605A6091
:102038009A60DA601A615A6101233B634FF4803376
:102048007B630023BB6301233B640223FB644FF4DF
:1020580080333B654FF4E0137B6507F13003184686
:1020680002F070FE0346002B01D000F028F80F2381
:10207800FB6102233B6200237B624FF48063BB62F7
:102088000023FB6207F11C030221184603F0DCF869
:102098000346002B01D000F012F802237B604FF4B6
:1020A8000043FB603B1D184603F05CFA0346002B17
:1020B80001D000F004F800BF5837BD4680BD80B499
:1020C80000AF72B600BF00BFFDE7000080B500AFEB
:1020D800012208210A4802F05EF90122102108486D
:1020E80002F059F900222021054802F054F9002293
:1020F8004FF48071024802F04EF900BF80BD00BF66
:102108000010014080B582B000AF03460A46FB715B
:102118001346BB71FB79002B30D197F90630002BA1
:102128000FDD314B1B6897F906205A6301220821FD
:102138002E4802F030F9002210212C4802F02BF929
:102148004EE097F90630002B13DABB795B42DBB21D
:10215800BB71254B1B6897F906205A63002208219A
:10216800224802F018F901221021204802F013F940
:1021780036E01D4B1B6800225A6331E097F90630A0
:10218800002B10DD184B1B6897F906209A63012273
:102198002021164802F0FFF800224FF480711348FE
:1021A80002F0F9F81CE097F90630002B14DABB7935
:1021B8005B42DBB2BB710C4B1B6897F906209A6334
:1021C80000222021094802F0E6F801224FF480712C
:1021D800064802F0E0F803E0034B1B6800229A630C
:1021E80000BF0837BD4680BDF00700200010014041
:1021F80080B582B000AF03460A46FB711346BB7137
:1022080097F9073019460020FFF77CFF97F9063049
:1022180019460120FFF776FF00BF0837BD4680BD8D
:1022280080B500AF1E211420FFF7E2FF00BF80BD7C
:1022380080B500AF28210A20FFF7DAFF00BF80BD74
:1022480080B500AF14211E20FFF7D2FF00BF80BD6C
:1022580080B500AF0A212820FFF7CAFF00BF80BD64
:1022680080B500AF0121294802F07EF80346002B13
:1022780001D0FFF7DDFF0221244802F075F803467C
:10228800002B09D04FF48071204802F06DF8034606
:10229800002B01D1FFF7C4FF4FF480711B4802F0F7
:1022A80063F80346002B12D00121184802F05CF8AD
:1022B8000346002B0BD14FF48051144802F054F818
:1022C8000346002B03D119211920FFF791FF4FF482
:1022D80000710E4802F048F80346002B09D04FF46D
:1022E80080710A4802F040F80346002B01D1FFF73D
:1022F800A7FF4FF48051054802F036F80346002B3B
:1023080001D0FFF7A5FF00BF80BD00BF000C014052
:1023180080B584B002AF78600B46FB70FB789BB247
:102328004FF0FF3200927A687821034802F0B2F940
:1023380000BF0837BD4680BD2002002080B582B0AE
:1023480000AF0346FB71054AFB795370022103482D
:10235800FFF7DEFF00BF0837BD4680BD1C07002021
:1023680080B500AFAE20FFF7E9FF2020FFF7E6FFBA
:102378001020FFF7E3FFB020FFF7E0FFC820FFF7CA
:10238800DDFF0020FFF7DAFF1020FFF7D7FF40201E
:10239800FFF7D4FF8120FFF7D1FFDF20FFF7CEFF43
:1023A800A120FFF7CBFFA620FFF7C8FFA820FFF763
:1023B800C5FF3F20FFF7C2FFA420FFF7BFFFD320D0
:1023C800FFF7BCFF0020FFF7B9FFD520FFF7B6FFE6
:1023D800F020FFF7B3FFD920FFF7B0FF2220FFF767
:1023E800ADFFDA20FFF7AAFF1220FFF7A7FFDB20D7
:1023F800FFF7A4FF2020FFF7A1FF8D20FFF79EFF26
:102408001420FFF79BFF00F007F800F011F8AF2049
:10241800FFF794FF00BF80BD80B500AF4FF4806226
:102428000021024806F021FC00BF80BD1C030020EB
:1024380080B582B000AF154B40221A700023FB71A3
:102448001BE0FB79503BDBB21846FFF777FF002013
:10245800FFF774FF1020FFF771FF0D48FB79DB01D0
:102468000C4A13448022194606F08DFC8121074846
:10247800FFF74EFFFB790133FB71FB79072BE0D99E
:1024880000BF00BF0837BD4680BD00BF2007002041
:10249800210700201C03002090B482B000AF04463E
:1024A800084611461A462346FB710346BB710B4684
:1024B8007B7113463B71FB79072B5FD897F9063080
:1024C800002B5BDB3B7D002B02D07B79DB437B71F0
:1024D8003B7C0133FF2202FA03F35AB297F9053025
:1024E80013435AB23B79C3F10803FF2141FA03F3BE
:1024F8005BB213435BB2DAB2234B1A70FA79BB7939
:102508002249D2010A44134418781F4B1978FA79E2
:10251800BB790140C8B21D49D2010A44134402469E
:102528001A703B7C0133FF2202FA03F35BB2DB43F0
:102538005AB297F9053013405AB23B79C3F10803F0
:102548006FF0FF0141FA03F35BB213405BB2DAB2FA
:102558000D4B1A70FA79BB790C49D2010A4413441D
:102568001878094B1978FA79BB790143C8B2074939
:10257800D2010A44134402461A7000E000BF08372B
:10258800BD4690BC704700BFA10700201C03002077
:10259800B0B586B002AF0446084611461A4623462F
:1025A800FB710346BB710B467B7113463B71BB79CC
:1025B800DB08FB73BB7903F00703BB73BA7B3B797A
:1025C8001344082B29DD7A79BB7B02FA03F3DAB2CC
:1025D800BC7BF979F87B97F82030019307230093A7
:1025E8002346FFF759FFFB7B0133D8B27A79BB7BCF
:1025F800C3F1080342FA03F3DCB23A79BB7B134414
:10260800DBB2093BDBB2F97997F8202001920093FD
:1026180000232246FFF740FF15E07A79BB7B02FAD8
:1026280003F3DCB2BA7B3B791344DBB2013BDBB288
:10263800BD7BF979F87B97F82020019200932B460F
:102648002246FFF729FF00BF1037BD46B0BD90B541
:1026580087B002AF0446084611461A462346FB7166
:102668000346BB710B467B7113463B71BB79DB0894
:10267800FB73BB7903F00703BB737A79BB7B02FA60
:1026880003F3DAB2BC7BF979F87B3B790193072332
:1026980000932346FFF700FFBB7B002B14D0FB7B86
:1026A8000133D8B27A79BB7BC3F1080342FA03F34A
:1026B800DCB2BB7B013BDBB2F9793A79019200933A
:1026C80000232246FFF7E8FE00BF1437BD4690BD41
:1026D80090B587B002AF3A601A460346FB710B46C5
:1026E800BB7113467B7197F82030DB083B7397F872
:1026F800203003F00703FB720023FB7325E000235F
:10270800BB731BE0FA79FB7B1344D8B2BB7BDB00BD
:10271800DAB2BB791344DCB2FA7BBB7B797901FB73
:1027280003F313441A463B6813441A7897F8243085
:102738002146FFF78CFFBB7B0133BB73BA7B3B7B26
:102748009A42DFD3FB7B0133FB73FA7B7B799A4296
:10275800D5D3FB7A002B28D07B799BB23A7B92B2F7
:1027680002FB03F33B8100237B731AE0FA797B7B3E
:102778001344D8B23B7BDB00DAB2BB791344D9B23D
:102788003A897B7B13441A463B6813441A78FC7ACF
:1027980097F8243000932346FFF7FAFE7B7B01333A
:1027A8007B737A7B7B799A42E0D300BF1437BD46AE
:1027B80090BDB0B584B002AF3B600346FB710B46D9
:1027C800BB7113467B713B685A687B79A3F1200182
:1027D8003B681B780733002B00DA0733DB101846F9
:1027E8003B685B7800FB03F301FB03F3D4183B68F9
:1027F8005D783B681B78B979F8793A7E0192009345
:102808002B462246FFF764FF00BF0837BD46B0BD20
:1028180080B588B002AFBA607B600346FB730B4695
:10282800BB73FB7BFB7511E0BB681A78B97BF87D3D
:1028380097F8203000937B68FFF7BBFF7B685A78D6
:10284800FB7D1344FB75BB680133BB60BB681B7819
:10285800002BE9D100BF00BF1837BD4680BD00007E
:1028680080B485B000AF154B9B69144A43F001034F
:102878009361124B9B6903F00103BB60BB680F4B6C
:10288800DB690E4A43F08053D3610C4BDB6903F0DC
:1028980080537B607B680A4B5B68FB60FB6823F0B6
:1028A800E063FB60FB6843F00073FB60044AFB686D
:1028B800536000BF1437BD4680BC7047001002400B
:1028C8000000014080B400AF00BFFDE780B400AF56
:1028D80000BFFDE780B400AF00BFFDE780B400AFE4
:1028E80000BFFDE780B400AF00BFFDE780B400AFD4
:1028F80000BFBD4680BC704780B400AF00BFBD4676
:1029080080BC704780B400AF00BFBD4680BC704734
:1029180080B500AF00F00CFC00BF80BD80B500AFF3
:102928000A2000F021FC0421064801F01DFD0346A1
:10293800002B02D1044B01221A70042001F044FD3F
:1029480000BF80BD00100140A207002080B500AF85
:10295800024803F0EFFB00BF80BD00BFA8070020BE
:1029680080B500AF024803F0E5FB00BF80BD00BFA3
:102978003808002080B500AF024804F0B1FC00BF61
:1029880080BD00BF8008002080B400AF0123184636
:10299800BD4680BC704780B582B000AF78603960B2
:1029A80006F0B6F9034616221A604FF0FF331846B0
:1029B8000837BD4680BD80B582B000AF78604FF063
:1029C800FF317868FFF7E7FF00BFFDE780B586B005
:1029D80000AFF860B9607A6000237B610AE0AFF36A
:1029E80000800146BB685A1CBA60CAB21A707B697B
:1029F80001337B617A697B689A42F0DB7B68184611
:102A08001837BD4680BD80B586B000AFF860B960A4
:102A18007A6000237B6109E0BB685A1CBA601B78A6
:102A28001846AFF300807B6901337B617A697B6864
:102A38009A42F1DB7B6818461837BD4680BD80B4E2
:102A480083B000AF78604FF0FF3318460C37BD46AF
:102A580080BC704780B483B000AF786039603B6851
:102A68004FF400525A60002318460C37BD4680BC0C
:102A7800704780B483B000AF7860012318460C37E4
:102A8800BD4680BC704780B485B000AFF860B960BF
:102A98007A60002318461437BD4680BC7047000092
:102AA80080B586B000AF7860144A154BD31A7B61A5
:102AB8007B693B61134B1B68002B02D1114B124AF7
:102AC8001A60104B1A687B6813443A699A4207D215
:102AD80006F01EF903460C221A604FF0FF3309E096
:102AE800084B1B68FB60074B1A687B681344054A50
:102AF8001360FB6818461837BD4680BD00C000202B
:102B080000040000A4070020180A002080B400AFC9
:102B180000BFBD4680BC704780B58AB000AF07F1E2
:102B2800180300221A605A609A60DA6007F11003ED
:102B380000221A605A603B4600221A605A609A6066
:102B4800DA60344B344A1A60324B47225A60314BB0
:102B580000229A602F4B4FF6FF72DA602D4B00224D
:102B68001A612C4B00225A612A4B00229A6129488B
:102B780002F086FE0346002B01D0FFF7A0FA4FF4BF
:102B88008053BB6107F118031946224803F020FD62
:102B98000346002B01D0FFF792FA1E4803F08AF88B
:102BA8000346002B01D0FFF78AFA00233B6100237C
:102BB8007B6107F110031946164804F037FA0346FB
:102BC800002B01D0FFF77BFA00233B6001237B60D9
:102BD8000023BB600023FB603B46082219460D48D2
:102BE80003F098FB0346002B01D0FFF768FA022395
:102BF8003B6002237B603B460C221946054803F0E4
:102C080089FB0346002B01D0FFF759FA00BF28378C
:102C1800BD4680BDA8070020002C014080B58EB0BD
:102C280000AF07F1280300221A605A609A60DA6040
:102C380007F1200300221A605A603B1D00221A6027
:102C48005A609A60DA601A615A619A61314B324A65
:102C58001A60304B47225A602E4B00229A602D4B47
:102C68006322DA602B4B00221A612A4B00229A61F8
:102C7800284802F005FE0346002B01D0FFF71FFA93
:102C88004FF48053BB6207F128031946214803F02B
:102C98009FFC0346002B01D0FFF711FA1D4802F0F4
:102CA800F7FE0346002B01D0FFF709FA00233B6229
:102CB80000237B6207F120031946164804F0B6F991
:102CC8000346002B01D0FFF7FAF960237B6000234D
:102CD800BB600023FB6000237B613B1D002219467B
:102CE8000C4803F0B3FB0346002B01D0FFF7E7F9CC
:102CF8003B1D04221946074803F0A8FB0346002B96
:102D080001D0FFF7DCF9034800F0CEF800BF3837F0
:102D1800BD4680BDF00700200004004080B586B0A5
:102D280000AF07F1080300221A605A609A60DA605F
:102D38003B4600221A605A601D4B1E4A1A601C4B03
:102D480041F61F425A601A4B00229A60184B42F211
:102D58000F72DA60164B00221A61154B00229A6135
:102D6800134802F08DFD0346002B01D0FFF7A7F9A9
:102D78004FF48053BB6007F1080319460C4803F071
:102D880027FC0346002B01D0FFF799F900233B608D
:102D980000237B603B461946054804F047F9034683
:102DA800002B01D0FFF78BF900BF1837BD4680BD57
:102DB800380800200008004080B58AB000AF78606D
:102DC80007F1180300221A605A609A60DA607B687B
:102DD8001B68304A93422DD12F4B9B692E4A43F4EE
:102DE800006393612C4B9B6903F400637B617B69EF
:102DF800294B9B69284A43F004039361264B9B693E
:102E080003F004033B613B694FF48063BB6100231B
:102E1800FB6100233B6207F1180319461F4801F0C4
:102E28000FF9002202211B2000F091FF1B2000F067
:102E3800AAFF2AE07B681B68194A93420CD1164BFB
:102E4800DB69154A43F00203D361134BDB6903F0D6
:102E58000203FB60FB6818E07B681B68114A934219
:102E680013D10D4BDB690C4A43F00403D3610A4BC1
:102E7800DB6903F00403BB60BB68002204211E2049
:102E880000F065FF1E2000F07EFF00BF2837BD461A
:102E980080BD00BF002C0140001002400008014026
:102EA800000400400008004080B588B000AF78609A
:102EB80007F10C0300221A605A609A60DA607B6896
:102EC8001B68184A934229D1174B9B69164A43F04D
:102ED80010039361144B9B6903F01003BB60BB683C
:102EE800C023FB6002233B610223BB6107F10C0393
:102EF80019460E4801F0A4F80D4B5B68FB61FB69AD
:102F080023F44063FB61FB6943F0E063FB61FB6909
:102F180043F44063FB61064AFB69536000BF2037F6
:102F2800BD4680BD00040040001002400010014072
:102F38000000014080B500AF114B124A1A60104BD7
:102F48004FF4E1325A600E4B00229A600C4B00227B
:102F5800DA600B4B00221A61094B0C225A61084BAC
:102F680000229A61064B0022DA61054804F0DCF879
:102F78000346002B01D0FFF7A2F800BF80BD00BFB9
:102F8800800800200048004080B58AB000AF786013
:102F980007F1140300221A605A609A60DA607B68AD
:102FA8001B68294A93424BD1284BDB69274A43F4D3
:102FB8008023D361254BDB6903F480233B613B69A4
:102FC800224B9B69214A43F0100393611F4B9B6975
:102FD80003F01003FB60FB684FF480637B610223FE
:102FE800BB6103233B6207F114031946184801F03B
:102FF80027F84FF400637B610023BB610023FB616A
:1030080007F114031946124801F01AF8114B5B68CE
:103018007B627B6A23F030037B627B6A43F0E06368
:103028007B627B6A43F010037B620A4A7B6A5360C7
:1030380000220321272000F08AFE272000F0A3FEAB
:1030480000BF2837BD4680BD004800400010024040
:103058000010014000000140FFF758FD0B480C49E3
:103068000C4A002302E0D458C4500433C4188C42DC
:10307800F9D3094A094C002301E013600432A24243
:10308800FBD305F04BFEFEF7CBFD70470000002098
:10309800D401002014CB0008D4010020180A002015
:1030A800FEE7000080B500AF084B1B68074A43F0F5
:1030B80010031360032000F03FFE002000F008F822
:1030C800FFF7CEFB0023184680BD00BF002002405A
:1030D80080B582B000AF7860124B1A68124B1B782B
:1030E80019464FF47A73B3FBF1F3B2FBF3F31846C6
:1030F80000F057FE0346002B01D001230EE07B6849
:103108000F2B0AD8002279684FF0FF3000F01FFE1D
:10311800064A7B681360002300E00123184608373D
:10312800BD4680BD000000200800002004000020EB
:1031380080B400AF054B1B781A46054B1B68134437
:10314800034A136000BFBD4680BC704708000020DA
:10315800C808002080B400AF024B1B681846BD4663
:1031680080BC7047C808002080B584B000AF786084
:10317800FFF7F0FFB8607B68FB60FB68B3F1FF3FC7
:1031880005D00A4B1B781A46FB681344FB6000BF46
:10319800FFF7E0FF0246BB68D31AFA689A42F7D8ED
:1031A80000BF00BF1037BD4680BD00BF080000202B
:1031B80080B586B000AF78600023FB7500233B61C3
:1031C8000023BB600023FB607B68002B01D1012337
:1031D800CEE07B689B68002B7B689B6A002B09D13B
:1031E8007B680022DA627B68002283F824207868F2
:1031F800FDF782FE786800F0E3FB0346FB757B6809
:103208009B6A03F01003002B40F0A980FB7D002B84
:1032180040F0A5807B689B6A23F4885323F002035F
:1032280043F002027B689A627B685A687B681B6875
:1032380051498B420AD17B68DB69B3F5402F02D034
:103248007B68DB6904E04FF4002301E07B68DB69FD
:103258001A437B681B7B5B001343BA681343BB604C
:103268007B689B68B3F5807F03D07B689B68012BE4
:1032780002D14FF4807300E000233A6913433B61A5
:103288007B681B7D012B19D17B681B7B002B09D127
:103298007B689B69013B5A033B69134343F4006312
:1032A8003B610BE07B689B6A43F020027B689A6273
:1032B8007B68DB6A43F001027B68DA627B681B6823
:1032C8005B6823F469417B681B683A690A435A6062
:1032D8007B681B689A68294B13407A681268B9683A
:1032E8000B4393607B689B68B3F5807F03D07B6852
:1032F8009B68012B04D17B681B69013B1B05FB60A4
:103308007B681B68DB6A23F470017B681B68FA68BA
:103318000A43DA627B681B689A68194B1340BA68DB
:103328009A420BD17B680022DA627B689B6A23F0A1
:10333800030343F001027B689A6218E07B689B6A8A
:1033480023F0120343F010027B689A627B68DB6A01
:1033580043F001027B68DA620123FB7507E07B68B2
:103368009B6A43F010027B689A620123FB75FB7D20
:1033780018461837BD4680BD003C0140FDF7E1FF07
:10338800FE0E1FFF80B584B000AF78600023FB738A
:103398007B6893F82430012B01D1022398E07B68E5
:1033A800012283F82420786800F0B0FA0346FB7302
:1033B800FB7B002B40F087807B689B6A23F440737B
:1033C80023F0010343F480727B689A627B681B6870
:1033D800414A934205D1414B5B6803F47023002BAB
:1033E80015D17B689B6A23F480127B689A627B689C
:1033F8001B685B6803F48063002B26D07B689B6A9C
:1034080023F4405343F480527B689A621DE07B6842
:103418009B6A43F480127B689A627B681B682F4A18
:10342800934204D07B681B682B4A93420DD12B4BE7
:103438005B6803F48063002B07D07B689B6A23F4E6
:10344800405343F480527B689A627B689B6A03F41A
:103458008053002B06D07B68DB6A23F006027B686A
:10346800DA6202E07B680022DA627B68002283F875
:1034780024207B681B686FF002021A607B681B6857
:103488009B6803F46023B3F5602F13D17B681B6836
:10349800114A934205D1114B5B6803F47023002B4A
:1034A80008D17B681B689A687B681B6842F4A00295
:1034B8009A600CE07B681B689A687B681B6842F41A
:1034C80080129A6003E07B68002283F82420FB7B4B
:1034D80018461037BD4680BD002801400024014031
:1034E80090B587B000AF7860396000237B61002316
:1034F800FB6000233B61FFF72DFE78617B681B684A
:103508009B6803F48073002B0BD07B689B6A43F0A5
:1035180020027B689A627B68002283F824200123BA
:10352800D3E07B681B685B6803F48073002B31D1A0
:103538007B681B68DB6A03F47003002B2AD121E047
:103548003B68B3F1FF3F1DD03B68002B07D0FFF766
:1035580001FE02467B69D31A3A689A4212D27B6806
:103568001B681B6803F00203002B0BD17B689B6A66
:1035780043F004027B689A627B68002283F8242067
:103588000323A2E07B681B681B6803F00203002B7F
:10359800D6D070E04F4B1C68022002F099F8034621
:1035A800B4FBF3F27B681B6819694B4B0B40002B8B
:1035B80018D17B681B68D968484B0B40002B11D188
:1035C8007B681B681969464B0B40002B08D17B6848
:1035D8001B68D968434B0B40002B01D1142320E012
:1035E80029231EE07B681B6819693D4B0B40002BA3
:1035F80006D17B681B68D9683A4B0B40002B0DD06D
:103608007B681B681969384B0B40002B08D17B6815
:103618001B68D968344B0B40002B01D1542300E0C0
:10362800FC2302FB03F33B6121E03B68B3F1FF3F5E
:103638001AD03B68002B07D0FFF78CFD02467B6948
:10364800D31A3A689A420FD2FB683A699A420BD960
:103658007B689B6A43F004027B689A627B6800225D
:1036680083F82420032330E0FB680133FB60FB6808
:103678003A699A42D9D87B681B686FF012021A60BF
:103688007B689B6A43F400727B689A627B681B685C
:103698009B6803F46023B3F5602F15D17B681B7B0F
:1036A800002B11D17B689B6A23F480727B689A6235
:1036B8007B689B6A03F48053002B05D17B689B6A67
:1036C80043F001027B689A62002318461C37BD4606
:1036D80090BD00BF00000020244992242449920094
:1036E80092244912922449004992240080B483B05C
:1036F80000AF78607B681B68DB6C18460C37BD46EA
:1037080080BC704780B485B000AF78603960002312
:10371800FB730023BB607B6893F82430012B01D135
:103728000223DCE07B68012283F824203B685B6885
:10373800062B1CD87B681B68596B3B685A68134674
:103748009B001344053B1F2202FA03F3DB43194095
:103758003B6818683B685A6813469B001344053B4E
:1037680000FA03F27B681B680A435A633CE03B6833
:103778005B680C2B1CD87B681B68196B3B685A6804
:1037880013469B001344233B1F2202FA03F3DB4337
:1037980019403B6818683B685A6813469B001344F5
:1037A800233B00FA03F27B681B680A431A631BE099
:1037B8007B681B68D96A3B685A6813469B001344A8
:1037C800413B1F2202FA03F3DB4319403B681868A8
:1037D8003B685A6813469B001344413B00FA03F2C6
:1037E8007B681B680A43DA623B681B68092B1CD993
:1037F8007B681B68D9683B681A6813465B001344EA
:103808001E3B072202FA03F3DB4319403B68986822
:103818003B681A6813465B0013441E3B00FA03F228
:103828007B681B680A43DA6019E07B681B681969C2
:103838003B681A6813465B001344072202FA03F335
:10384800DB4319403B6898683B681A6813465B007D
:10385800134400FA03F27B681B680A431A613B6849
:103868001B68102B03D03B681B68112B32D17B6877
:103878001B681D4A934225D17B681B689B6803F42B
:103888000003002B26D17B681B689A687B681B683D
:1038980042F400029A603B681B68102B1AD1134B44
:1038A8001B68134AA2FB03239A0C13469B0013447C
:1038B8005B00BB6002E0BB68013BBB60BB68002BE0
:1038C800F9D107E07B689B6A43F020027B689A6223
:1038D8000123FB737B68002283F82420FB7B1846B6
:1038E8001437BD4680BC704700240140000000200A
:1038F80083DE1B4380B483B000AF78607B689B6A2B
:1039080018460C37BD4680BC7047000080B584B0AF
:1039180000AF78600023FB600023BB607B681B68F6
:103928009B6803F00103012B40D07B681B689A68F1
:103938007B681B6842F001029A601F4B1B681F4A94
:10394800A2FB03239B0CBB6002E0BB68013BBB608E
:10395800BB68002BF9D1FFF7FDFBF8601FE0FFF70C
:10396800F9FB0246FB68D31A022B18D97B681B683F
:103978009B6803F00103012B11D07B689B6A43F01D
:1039880010027B689A627B68DB6A43F001027B68FD
:10399800DA627B68002283F82420012307E07B6831
:1039A8001B689B6803F00103012BD8D1002318463C
:1039B8001037BD4680BD00BF0000002083DE1B43DA
:1039C80080B584B000AF78600023FB607B681B681B
:1039D8009B6803F00103012B2ED17B681B689A6852
:1039E8007B681B6822F001029A60FFF7B3FBF8605E
:1039F8001BE0FFF7AFFB0246FB68D31A022B14D972
:103A08007B681B689B6803F00103012B0DD17B6861
:103A18009B6A43F010027B689A627B68DB6A43F01A
:103A280001027B68DA62012307E07B681B689B68F8
:103A380003F00103012BDCD0002318461037BD46E4
:103A480080BD000090B587B000AF78600023FB759B
:103A58000023FB607B6893F82430012B01D10223FB
:103A680097E07B68012283F824207868FFF7A8FF95
:103A78000346FB757868FFF749FF0346FB75FB7D36
:103A8800002B40F081807B689B6A23F4885323F0E5
:103A9800020343F002027B689A62404B1C680220D2
:103AA80001F016FE0346B4FBF3F35B00FB6002E093
:103AB800FB68013BFB60FB68002BF9D17B681B6846
:103AC8009A687B681B6842F008029A60FFF742FB1D
:103AD80038611BE0FFF73EFB02463B69D31A0A2B0D
:103AE80014D97B681B689B6803F00803002B0DD072
:103AF8007B689B6A23F0120343F010027B689A628A
:103B08007B68002283F82420012342E07B681B683D
:103B18009B6803F00803002BDCD17B681B689A685C
:103B28007B681B6842F004029A60FFF713FB386158
:103B38001BE0FFF70FFB02463B69D31A0A2B14D987
:103B48007B681B689B6803F00403002B0DD07B681F
:103B58009B6A23F0120343F010027B689A627B6829
:103B6800002283F82420012313E07B681B689B68EC
:103B780003F00403002BDCD17B689B6A23F003036A
:103B880043F001027B689A627B68002283F8242054
:103B9800FB7D18461C37BD4690BD00BF00000020C5
:103BA80080B485B000AF78607B6803F00703FB60E2
:103BB8000C4BDB68BB60BA684FF6FF031340BB6071
:103BC800FB681A02BB68134343F0BF6343F4003336
:103BD800BB60044ABB68D36000BF1437BD4680BCD5
:103BE800704700BF00ED00E080B400AF044BDB6815
:103BF8001B0A03F007031846BD4680BC704700BF88
:103C080000ED00E080B483B000AF0346FB7197F984
:103C18000730002B0BDBFB7903F01F02064997F9ED
:103C280007305B09012000FA02F241F8232000BFA7
:103C38000C37BD4680BC704700E100E080B483B01B
:103C480000AF03463960FB7197F90730002B0ADB98
:103C58003B68DAB20C4997F907301201D2B20B442B
:103C680083F800230AE03B68DAB20849FB7903F0DD
:103C78000F03043B1201D2B20B441A7600BF0C3773
:103C8800BD4680BC704700BF00E100E000ED00E0E9
:103C980080B489B000AFF860B9607A60FB6803F05F
:103CA8000703FB61FB69C3F10703042B28BF042347
:103CB800BB61FB690433062B02D9FB69033B00E0B7
:103CC80000237B614FF0FF32BB6902FA03F3DA434A
:103CD800BB681A407B699A404FF0FF317B6901FA53
:103CE80003F3D9437B680B40134318462437BD467A
:103CF80080BC704780B582B000AF78607B68013BBC
:103D0800B3F1807F01D301230FE00A4A7B68013BAE
:103D180053600F214FF0FF30FFF790FF054B002253
:103D28009A60044B07221A60002318460837BD46DC
:103D380080BD00BF10E000E080B582B000AF7860C1
:103D48007868FFF72DFF00BF0837BD4680BD80B5F6
:103D580086B000AF0346B9607A60FB7300237B61CD
:103D6800FFF742FF78617A68B9687869FFF790FFD2
:103D7800024697F90F3011461846FFF75FFF00BF5C
:103D88001837BD4680BD80B582B000AF0346FB71D1
:103D980097F907301846FFF735FF00BF0837BD46CB
:103DA80080BD80B582B000AF78607868FFF7A2FF69
:103DB800034618460837BD4680BD80B485B000AFBD
:103DC80078600023FB737B6893F82130DBB2022B09
:103DD80008D07B6804229A637B68002283F820203D
:103DE800012320E07B681B681A687B681B6822F047
:103DF8000E021A607B681B681A687B681B6822F0D1
:103E080001021A607B681A6C7B68DB6B012101FA7E
:103E180002F25A607B68012283F821207B68002225
:103E280083F82020FB7B18461437BD4680BC7047BA
:103E380080B584B000AF78600023FB737B6893F88B
:103E48002130DBB2022B05D07B6804229A63012360
:103E5800FB73D6E07B681B681A687B681B6822F0D6
:103E68000E021A607B681B681A687B681B6822F060
:103E780001021A607B681B681A46644B9A4258D93B
:103E88007B681B68624A93424FD07B681B68614A13
:103E9800934248D07B681B685F4A934240D07B6856
:103EA8001B685E4A934238D07B681B685C4A934221
:103EB80030D07B681B685B4A934228D07B681B68BC
:103EC800524A934220D07B681B68574A934219D0C4
:103ED8007B681B68554A934212D07B681B68544A1A
:103EE80093420AD07B681B68524A934202D14FF42E
:103EF80080531BE04FF4803318E04FF4807315E0D3
:103F0800102313E0012311E04FF080730EE04FF40B
:103F180080130BE04FF4803308E04FF4805305E042
:103F28004FF4807302E0102300E00123424A5360FB
:103F380057E07B681B68364A93424FD07B681B6802
:103F4800344A934248D07B681B68334A934240D036
:103F58007B681B68314A934238D07B681B68304ABB
:103F6800934230D07B681B682E4A934228D07B68E6
:103F78001B68264A934220D07B681B682A4A9342D2
:103F880019D07B681B68294A934212D07B681B684A
:103F9800274A93420AD07B681B68264A934202D17B
:103FA8004FF480531BE04FF4803318E04FF48073D4
:103FB80015E0102313E0012311E04FF080730EE0A9
:103FC8004FF480130BE04FF4803308E04FF4805334
:103FD80005E04FF4807302E0102300E00123174A44
:103FE80053607B68012283F821207B68002283F8D4
:103FF80020207B685B6B002B03D07B685B6B786849
:104008009847FB7B18461037BD4680BD80000240AC
:10401800080002401C0002403000024044000240F8
:10402800580002406C000240080402401C04024090
:1040380030040240440402400004024000000240F0
:1040480080B48BB000AF7860396000237B620023B6
:104058003B6279E101227B6A02FA03F3FB613B6868
:104068001B68FA691340BB61BA69FB699A4240F060
:1040780068813B685B68964A93425ED0944A934253
:1040880075D8944A934258D0924A93426FD8924A2C
:10409800934252D0904A934269D8904A93424CD066
:1040A8008E4A934263D88E4A934246D08C4A9342B2
:1040B8005DD8122B2AD8122B59D801A252F823F016
:1040C800434100081D4100082F41000871410008C4
:1040D80077410008774100087741000877410008D8
:1040E80077410008774100087741000877410008C8
:1040F80077410008774100087741000877410008B8
:10410800774100082541000839410008754A934263
:1041180013D02CE03B68DB683B6229E03B68DB6836
:1041280004333B6224E03B68DB6808333B621FE0F2
:104138003B68DB680C333B621AE03B689B68002BEA
:1041480002D104233B6213E03B689B68012B05D135
:1041580008233B627B68FA691A6109E008233B621D
:104168007B68FA695A6103E000233B6200E000BF04
:10417800BB69FF2B01D87B6801E07B6804337B6156
:10418800BB69FF2B02D87B6A9B0002E07B6A083B75
:104198009B003B617B691A680F213B6901FA03F3B5
:1041A800DB431A40396A3B6901FA03F31A437B6916
:1041B8001A603B685B6803F08053002B00F0C180F5
:1041C800494B9B69484A43F001039361464B9B69FD
:1041D80003F00103BB60BB68444A7B6A9B08023357
:1041E80052F82330FB607B6A03F003039B000F2225
:1041F80002FA03F3DB43FA681340FB607B683C4A2E
:1042080093421FD07B683B4A934219D07B683A4A55
:10421800934213D07B68394A93420DD07B68384A61
:10422800934207D07B68374A934201D105230AE0BD
:10423800062308E0042306E0032304E0022302E047
:10424800012300E000237A6A02F0030292009340FF
:10425800FA681343FB6025497B6A9B080233FA68B6
:1042680041F823203B685B6803F48013002B06D0D9
:10427800254B9A682449BB6913438B6006E0224B9F
:104288009A68BB69DB43204913408B603B685B68D5
:1042980003F40013002B06D01B4BDA681A49BB69DC
:1042A8001343CB6006E0184BDA68BB69DB43164959
:1042B8001340CB603B685B6803F40033002B25D0C8
:1042C800114B5A681049BB6913434B6025E000BF86
:1042D80000003210000031100000221000002110F0
:1042E80000001210000011100010024000000140F0
:1042F80000080140000C014000100140001401407A
:1043080000180140001C014000040140154B5A6888
:10431800BB69DB43134913404B603B685B6803F49C
:104328008033002B06D00F4B1A680E49BB69134324
:104338000B6006E00B4B1A68BB69DB430949134065
:104348000B607B6A01337B623B681A687B6A22FADE
:1043580003F3002B7FF47EAE00BF00BF2C37BD46B1
:1043680080BC70470004014080B485B000AF78601D
:104378000B467B807B689A687B881340002B02D0B1
:104388000123FB7301E00023FB73FB7B1846143702
:10439800BD4680BC704780B483B000AF78600B46E0
:1043A8007B8013467B707B78002B03D07A887B68F0
:1043B8001A6103E07B881A047B681A6100BF0C3716
:1043C800BD4680BC7047000080B582B000AF034690
:1043D800FB80084B5A69FB881340002B06D0054A1E
:1043E800FB885361FB88184600F006F800BF0837C1
:1043F800BD4680BD0004014080B483B000AF0346D1
:10440800FB8000BF0C37BD4680BC704780B584B0C8
:1044180000AF78607B68002B01D101232BE17B681A
:1044280093F83D30DBB2002B06D17B68002283F87D
:104438003C207868FDF7BEFA7B68242283F83D208B
:104448007B681B681A687B681B6822F001021A6087
:104458007B681B681A687B681B6842F400421A6014
:104468007B681B681A687B681B6822F400421A6024
:1044780001F032F8F8607B685B68814A934207D89C
:10448800FB68804A934294BF01230023DBB206E015
:10449800FB687D4A934294BF01230023DBB2002BC3
:1044A80001D00123E7E0FB68784AA2FB03239B0CB9
:1044B800BB607B681B685B6823F03F017B681B68F7
:1044C800BA680A435A607B681B681B6A23F03F017D
:1044D8007B685B686A4A934202D8BB68013309E08B
:1044E800BB684FF4967202FB03F3694AA2FB0323ED
:1044F8009B0901337A6812680B4313627B681B6857
:10450800DB6923F44F4222F0FF027B685B685C4959
:104518008B4219D8FB68591E7B685B685B00B1FB4E
:10452800F3F3591C40F6FC730B40002B0AD0FB68D0
:10453800591E7B685B685B00B1FBF3F30133C3F37F
:104548000B0351E004234FE07B689B68002B11D1DB
:10455800FB68581E7B6859680B465B000B44B0FB30
:10456800F3F30133C3F30B03002B0CBF0123002328
:10457800DBB212E0FB68581E7B6859680B469B004B
:104588000B4499000B44B0FBF3F30133C3F30B0363
:10459800002B0CBF01230023DBB2002B01D0012329
:1045A80022E07B689B68002B0ED1FB68581E7B6855
:1045B80059680B465B000B44B0FBF3F30133C3F3BC
:1045C8000B0343F400430FE0FB68581E7B685968EF
:1045D8000B469B000B4499000B44B0FBF3F30133EB
:1045E800C3F30B0343F44043796809681343CB6171
:1045F8007B681B681B6823F0C0017B68DA697B68ED
:104608001B6A1A437B681B680A431A607B681B682D
:104618009B6823F4034323F0FF037A6811697A68DF
:10462800D26811437A6812680B4393607B681B68F1
:10463800DB6823F0FF017B685A697B689B691A4332
:104648007B681B680A43DA607B681B681A687B68AA
:104658001B6842F001021A607B6800221A647B68BA
:10466800202283F83D207B6800221A637B680022A1
:1046780083F83E20002318461037BD4680BD00BF92
:10468800A08601007F841E00FF083D0083DE1B43D7
:10469800D34D621080B588B002AFF8607A601A46D0
:1046A8000B467B8113463B81FEF754FD7861FB681E
:1046B80093F83D30DBB2202B40F0E0807B6900931B
:1046C800192301227049F86800F064F90346002BA9
:1046D80001D00223D3E0FB6893F83C30012B01D1D1
:1046E8000223CCE0FB68012283F83C20FB681B68AE
:1046F8001B6803F00103012B07D0FB681B681A68CD
:10470800FB681B6842F001021A60FB681B681A68A4
:10471800FB681B6822F400621A60FB68212283F898
:104728003D20FB68102283F83E20FB6800221A64B3
:10473800FB687A685A62FB683A895A85FB685B8D20
:104748009AB2FB681A85FB68504ADA6279897B69F4
:104758003A6AF86800F09CF80346002B01D0012360
:104768008DE000233B61FB681B685B693B61FB686C
:104778001B689B693B613B6966E07A69396AF8683E
:1047880000F022FA0346002B0DD0FB681B6C042BAB
:1047980007D1FB681B681A68FB681B6842F4007243
:1047A8001A6001236BE0FB685B6A1A78FB681B6878
:1047B8001A61FB685B6A5A1CFB685A62FB685B8D6E
:1047C8009BB2013B9AB2FB685A85FB681B8D013B83
:1047D8009AB2FB681A85FB681B685B6903F00403DF
:1047E800042B1BD1FB681B8D002B17D0FB685B6A61
:1047F8001A78FB681B681A61FB685B6A5A1CFB68BD
:104808005A62FB685B8D9BB2013B9AB2FB685A8582
:10481800FB681B8D013B9AB2FB681A857A69396A75
:10482800F86800F019FA0346002B0DD0FB681B6CE2
:10483800042B07D1FB681B681A68FB681B6842F4E5
:1048480000721A6001231AE0FB681B8D002B94D1BB
:10485800FB681B681A68FB681B6842F400721A60E0
:10486800FB68202283F83D20FB68002283F83E2065
:10487800FB68002283F83C20002300E0022318464E
:104888001837BD4680BD00BF020010000000FFFFC2
:1048980080B588B002AFF8607A603B600B467B81D8
:1048A800FB68DB6A7B617B69082B06D07B69012B7F
:1048B80003D07B6913F5803F08D1FB681B681A6831
:1048C800FB681B6842F480721A600BE0FB681B6B84
:1048D800122B07D1FB681B681A68FB681B6842F437
:1048E80080721A603B6800937B6800224FF00111C8
:1048F800F86800F04FF80346002B0DD0FB681B68E2
:104908001B6803F48073B3F5807F03D1FB684FF411
:1049180000721A64032335E0FB681B69B3F5804F06
:1049280008D17B89DBB21A46FB681B6802F0FE02DD
:104938001A611BE07B89DB11DBB203F00603DBB2F3
:1049480063F00F03DAB2FB681B681A613B687A6888
:104958000E49F86800F098F80346002B01D00123AF
:1049680010E07B89DAB2FB681B681A613B687A68D9
:104978000749F86800F088F80346002B01D00123A6
:1049880000E0002318461837BD4680BD0800010026
:104998000200010080B584B000AFF860B9603B60E8
:1049A8001346FB7148E03B68B3F1FF3F44D0FEF784
:1049B800D1FB0246BB69D31A3A689A4202D33B68D4
:1049C800002B39D1BB681B0CDBB2012B0DD1FB6866
:1049D8001B685B69DA43BB6813409BB2002B0CBFB2
:1049E80001230023DBB21A460CE0FB681B689B69B5
:1049F800DA43BB6813409BB2002B0CBF0123002392
:104A0800DBB21A46FB799A4216D1FB6800221A6378
:104A1800FB68202283F83D20FB68002283F83E20B3
:104A2800FB681B6C43F02002FB681A64FB680022D9
:104A380083F83C20012323E0BB681B0CDBB2012B6D
:104A48000DD1FB681B685B69DA43BB6813409BB2F6
:104A5800002B0CBF01230023DBB21A460CE0FB68D5
:104A68001B689B69DA43BB6813409BB2002B0CBFE1
:104A780001230023DBB21A46FB799A4293D0002324
:104A880018461037BD4680BD80B584B000AFF860C9
:104A9800B9607A603B6071E0FB681B685B6903F48E
:104AA8008063B3F5806F23D1FB681B681A68FB68C5
:104AB8001B6842F400721A60FB681B686FF480621E
:104AC8005A61FB6800221A63FB68202283F83D20A4
:104AD800FB68002283F83E20FB681B6C43F004024D
:104AE800FB681A64FB68002283F83C20012367E016
:104AF8007B68B3F1FF3F41D0FEF72CFB02463B68D1
:104B0800D31A7A689A4202D37B68002B36D1BB68E5
:104B18001B0CDBB2012B0CD1FB681B685B69DA4309
:104B2800BB6813409BB2002B14BF01230023DBB2E8
:104B38000BE0FB681B689B69DA43BB6813409BB2B8
:104B4800002B14BF01230023DBB2002B16D0FB6817
:104B580000221A63FB68202283F83D20FB680022AC
:104B680083F83E20FB681B6C43F02002FB681A6444
:104B7800FB68002283F83C20012321E0BB681B0C62
:104B8800DBB2012B0CD1FB681B685B69DA43BB689D
:104B980013409BB2002B14BF01230023DBB20BE0B0
:104BA800FB681B689B69DA43BB6813409BB2002B08
:104BB80014BF01230023DBB2002B7FF46DAF002369
:104BC80018461037BD4680BD80B584B000AFF86088
:104BD800B9607A6034E0F86800F086F80346002B84
:104BE80001D0012334E0BB68B3F1FF3F28D0FEF7C2
:104BF800B1FA02467B68D31ABA689A4202D3BB68F4
:104C0800002B1DD1FB681B685B6903F08003802BB8
:104C180016D0FB6800221A63FB68202283F83D2027
:104C2800FB68002283F83E20FB681B6C43F02002DF
:104C3800FB681A64FB68002283F83C20012307E024
:104C4800FB681B685B6903F08003802BC3D10023DA
:104C580018461037BD4680BD80B584B000AFF860F7
:104C6800B9607A6034E0F86800F03EF80346002B3B
:104C780001D0012334E0BB68B3F1FF3F28D0FEF731
:104C880069FA02467B68D31ABA689A4202D3BB68AB
:104C9800002B1DD1FB681B685B6903F00403042B20
:104CA80016D0FB6800221A63FB68202283F83D2097
:104CB800FB68002283F83E20FB681B6C43F020024F
:104CC800FB681A64FB68002283F83C20012307E094
:104CD800FB681B685B6903F00403042BC3D1002342
:104CE80018461037BD4680BD80B483B000AF7860E9
:104CF8007B681B685B6903F48063B3F5806F1BD125
:104D08007B681B686FF480625A617B6800221A63B3
:104D18007B68202283F83D207B68002283F83E20B0
:104D28007B681B6C43F004027B681A647B68002272
:104D380083F83C20012300E0002318460C37BD46C9
:104D480080BC704780B586B000AF78607B68002B68
:104D580001D1012372E27B681B6803F00103002B79
:104D680000F08780924B5B6803F00C03042B0CD097
:104D78008F4B5B6803F00C03082B12D18C4B5B68DC
:104D880003F48033B3F5803F0BD1894B1B6803F4E0
:104D98000033002B6CD07B685B68002B68D1012343
:104DA8004CE27B685B68B3F5803F06D1804B1B689B
:104DB8007F4A43F4803313602EE07B685B68002BE6
:104DC8000CD17B4B1B687A4A23F480331360784BF1
:104DD8001B68774A23F4802313601DE07B685B68B7
:104DE800B3F5A02F0CD1724B1B68714A43F4802392
:104DF80013606F4B1B686E4A43F4803313600BE0FB
:104E08006B4B1B686A4A23F480331360684B1B683A
:104E1800674A23F4802313607B685B68002B13D0F8
:104E2800FEF798F9386108E0FEF794F902463B6905
:104E3800D31A642B01D9032300E25D4B1B6803F4EA
:104E48000033002BF0D014E0FEF784F9386108E055
:104E5800FEF780F902463B69D31A642B01D9032374
:104E6800ECE1534B1B6803F40033002BF0D100E056
:104E780000BF7B681B6803F00203002B63D04C4B18
:104E88005B6803F00C03002B0BD0494B5B6803F005
:104E98000C03082B1CD1464B5B6803F48033002BB2
:104EA80016D1434B1B6803F00203002B05D07B6827
:104EB8001B69012B01D00123C0E13D4B1B6823F086
:104EC800F8027B685B69DB00394913430B603AE001
:104ED8007B681B69002B20D0364B01221A60FEF735
:104EE80039F9386108E0FEF735F902463B69D31A0B
:104EF800022B01D90323A1E12D4B1B6803F0020308
:104F0800002BF0D02A4B1B6823F0F8027B685B6902
:104F1800DB00274913430B6015E0264B00221A607B
:104F2800FEF718F9386108E0FEF714F902463B6904
:104F3800D31A022B01D9032380E11D4B1B6803F010
:104F48000203002BF0D17B681B6803F00803002BD9
:104F58003AD07B689B69002B19D0174B01221A6045
:104F6800FEF7F8F8386108E0FEF7F4F802463B6906
:104F7800D31A022B01D9032360E10D4B5B6A03F0BE
:104F88000203002BF0D0012000F0CEFA1CE00A4BFF
:104F980000221A60FEF7DEF838610FE0FEF7DAF853
:104FA80002463B69D31A022B08D9032346E100BF06
:104FB800001002400000424280044242924B5B6A69
:104FC80003F00203002BE9D17B681B6803F004039C
:104FD800002B00F0A6800023FB758B4BDB6903F0E8
:104FE8008053002B0DD1884BDB69874A43F08053EF
:104FF800D361854BDB6903F08053BB60BB68012339
:10500800FB75824B1B6803F48073002B18D17F4B10
:105018001B687E4A43F480731360FEF79BF838617F
:1050280008E0FEF797F802463B69D31A642B01D9CA
:10503800032303E1754B1B6803F48073002BF0D046
:105048007B68DB68012B06D16F4B1B6A6E4A43F005
:10505800010313622DE07B68DB68002B0CD16A4BDF
:105068001B6A694A23F001031362674B1B6A664A8D
:1050780023F0040313621CE07B68DB68052B0CD16A
:10508800614B1B6A604A43F0040313625E4B1B6A60
:105098005D4A43F0010313620BE05B4B1B6A5A4AFB
:1050A80023F001031362584B1B6A574A23F0040389
:1050B80013627B68DB68002B15D0FEF74BF838616C
:1050C8000AE0FEF747F802463B69D31A41F28832F4
:1050D800934201D90323B1E04B4B1B6A03F002034F
:1050E800002BEED014E0FEF735F838610AE0FEF741
:1050F80031F802463B69D31A41F28832934201D90A
:1051080003239BE0404B1B6A03F00203002BEED104
:10511800FB7D012B05D13C4BDB693B4A23F08053D7
:10512800D3617B68DB69002B00F08780364B5B68B6
:1051380003F00C03082B61D07B68DB69022B46D196
:10514800334B00221A60FEF705F8386108E0FEF7D5
:1051580001F802463B69D31A022B01D903236DE0FB
:10516800294B1B6803F00073002BF0D17B681B6A86
:10517800B3F5803F08D1244B5B6823F400327B6889
:105188009B68214913434B601F4B5B6823F47412DF
:105198007B68196A7B685B6A0B431B4913434B6046
:1051A8001B4B01221A60FDF7D5FF386108E0FDF7B7
:1051B800D1FF02463B69D31A022B01D903233DE0F4
:1051C800114B1B6803F00073002BF0D035E0104B37
:1051D80000221A60FDF7BEFF386108E0FDF7BAFF4C
:1051E80002463B69D31A022B01D9032326E0064B5A
:1051F8001B6803F00073002BF0D11EE07B68DB69AD
:10520800012B07D1012319E0001002400070004073
:10521800600042420B4B5B68FB60FB6803F4803222
:105228007B681B6A9A4206D1FB6803F470127B689C
:105238005B6A9A4201D0012300E000231846183720
:10524800BD4680BD0010024080B584B000AF7860D4
:1052580039607B68002B01D10123D0E06A4B1B68C1
:1052680003F007033A689A4210D9674B1B6823F08A
:10527800070265493B6813430B60634B1B6803F0E7
:1052880007033A689A4201D00123B8E07B681B689B
:1052980003F00203002B20D07B681B6803F0040393
:1052A800002B05D0594B5B68584A43F4E0635360C0
:1052B8007B681B6803F00803002B05D0534B5B6821
:1052C800524A43F460535360504B5B6823F0F0023A
:1052D8007B689B684D4913434B607B681B6803F0F0
:1052E8000103002B40D07B685B68012B07D1474B3B
:1052F8001B6803F40033002B15D101237FE07B6882
:105308005B68022B07D1414B1B6803F00073002B2D
:1053180009D1012373E03D4B1B6803F00203002B06
:1053280001D101236BE0394B5B6823F003027B68F2
:105338005B68364913434B60FDF70CFFF8600AE0E1
:10534800FDF708FF0246FB68D31A41F28832934200
:1053580001D9032353E02D4B5B6803F00C027B68F3
:105368005B689B009A42EBD1274B1B6803F007034D
:105378003A689A4210D2244B1B6823F0070222494C
:105388003B6813430B60204B1B6803F007033A6824
:105398009A4201D0012332E07B681B6803F00403C2
:1053A800002B08D0194B5B6823F4E0627B68DB684C
:1053B800164913434B607B681B6803F00803002BF6
:1053C80009D0124B5B6823F460527B681B69DB00D1
:1053D8000E4913434B6000F021F802460B4B5B6803
:1053E8001B0903F00F030A49CB5C22FA03F3094AAD
:1053F8001360094B1B681846FDF76AFE0023184620
:105408001037BD4680BD00BF00200240001002409A
:105418009CC60008000000200400002080B487B06B
:1054280000AF0023FB600023BB6000237B610023E7
:105438007B6000233B611E4B5B68FB60FB6803F0ED
:105448000C03042B02D0082B03D027E0194B3B6137
:1054580027E0FB689B0C03F00F03174AD35C7B60C3
:10546800FB6803F48033002B10D0114B5B685B0C96
:1054780003F00103114AD35CBB607B680D4A03FB50
:1054880002F2BB68B2FBF3F37B6104E07B680C4A71
:1054980002FB03F37B617B693B6102E0054B3B61E7
:1054A80000BF3B6918461C37BD4680BC704700BF2B
:1054B8000010024000127A00B4C60008C4C60008F2
:1054C80000093D0080B400AF024B1B681846BD467A
:1054D80080BC70470000002080B500AFFFF7F2FFE6
:1054E8000246054B5B681B0A03F007030349CB5CC4
:1054F80022FA03F3184680BD00100240ACC600082B
:1055080080B500AFFFF7DEFF0246054B5B68DB0A9C
:1055180003F007030349CB5C22FA03F3184680BD66
:1055280000100240ACC6000880B485B000AF7860B7
:105538000A4B1B680A4AA2FB03235B0A7A6802FB30
:1055480003F3FB6000BFFB685A1EFA60002BF9D119
:1055580000BF00BF1437BD4680BC70470000002064
:10556800D34D621080B586B000AF786000233B61F0
:105578000023FB607B681B6803F00103002B7DD0D0
:105588000023FB754F4BDB6903F08053002B0DD1D3
:105598004C4BDB694B4A43F08053D361494BDB6981
:1055A80003F08053BB60BB680123FB75464B1B6847
:1055B80003F48073002B18D1434B1B68424A43F411
:1055C80080731360FDF7C6FD386108E0FDF7C2FD82
:1055D80002463B69D31A642B01D903236DE03A4B89
:1055E8001B6803F48073002BF0D0364B1B6A03F45E
:1055F8004073FB60FB68002B2ED07B685B6803F46C
:105608004073FA689A4227D02E4B1B6A23F44073E2
:10561800FB602E4B01221A602C4B00221A60294A8B
:10562800FB681362FB6803F00103002B14D0FDF73D
:1056380091FD38610AE0FDF78DFD02463B69D31AFA
:1056480041F28832934201D9032336E01D4B1B6A8D
:1056580003F00203002BEED01A4B1B6A23F44072AE
:105668007B685B68174913430B62FB7D012B05D1EF
:10567800144BDB69134A23F08053D3617B681B68A2
:1056880003F00203002B08D00E4B5B6823F4404262
:105698007B689B680B4913434B607B681B6803F06E
:1056A8001003002B08D0074B5B6823F480027B684B
:1056B8005B69044913434B60002318461837BD46FD
:1056C80080BD00BF0010024000700040400442420C
:1056D80080B588B000AF786000237B610023FB6150
:1056E80000233B610023FB600023BB617B68013B17
:1056F8000F2B00F2AF8001A252F823F0DB5700080D
:10570800415800085D580008CB5700085D5800084C
:105718005D5800085D580008D35700085D58000818
:105728005D5800085D5800085D5800085D5800087D
:105738005D5800085D580008455700084A4B5B68EB
:10574800FB60494B1B6803F08073002B00F08480DA
:10575800FB689B0C03F00F03444AD35C3B61FB6876
:1057680003F48033002B15D03F4B5B685B0C03F0D0
:1057780001033F4AD35C7B61FB6803F48033002B51
:105788000DD03C4A7B69B2FBF3F23B6902FB03F3A1
:10579800FB6104E03B69384A02FB03F3FB61324BCF
:1057A8005B6803F48003B3F5800F02D1FB69BB612A
:1057B80052E0FB695B00314AA2FB03235B08BB6133
:1057C8004AE0FFF72BFEB86149E0FFF727FEB86112
:1057D80045E0254B1B6AFB60FB6803F44073B3F597
:1057E800807F08D1FB6803F00203002B03D04FF43D
:1057F8000043BB611FE0FB6803F44073B3F5007F0F
:1058080009D1194B5B6A03F00203002B03D049F658
:105818004043BB610FE0FB6803F44073B3F5407F7E
:105828001CD1114B1B6803F40033002B16D04FF228
:105838002443BB6112E011E0FFF762FE02460A4B07
:105848005B689B0B03F0030301335B00B2FBF3F3CC
:10585800BB6104E000BF02E000BF00E000BFBB691D
:1058680018462037BD4680BD00100240C8C6000853
:10587800D8C6000800127A0000093D00ABAAAAAAFF
:1058880080B582B000AF78607B68002B01D101231E
:1058980041E07B6893F83D30DBB2002B06D17B6892
:1058A800002283F83C207868FDF786FA7B6802229C
:1058B80083F83D207B681A687B68043319461046D4
:1058C80000F0AEFF7B68012283F846207B68012246
:1058D80083F83E207B68012283F83F207B68012201
:1058E80083F840207B68012283F841207B680122ED
:1058F80083F842207B68012283F843207B680122D9
:1059080083F844207B68012283F845207B680122C4
:1059180083F83D20002318460837BD4680BD0000A7
:1059280080B485B000AF78607B6893F83D30DBB217
:10593800012B01D001233CE07B68022283F83D2043
:105948007B681B681D4A934218D07B681B681C4AF9
:10595800934213D07B681B68B3F1804F0ED07B68ED
:105968001B68184A934209D07B681B68164A934201
:1059780004D07B681B68154A934211D17B681B6869
:105988009B6803F00703FB60FB68062B10D07B685D
:105998001B681A687B681B6842F001021A6007E0FE
:1059A8007B681B681A687B681B6842F001021A60F2
:1059B800002318461437BD4680BC7047002C0140B0
:1059C800003401400004004000080040000C004082
:1059D80080B485B000AF78607B6893F83D30DBB267
:1059E800012B01D0012344E07B68022283F83D208B
:1059F8007B681B68DA687B681B6842F00102DA6022
:105A08007B681B681D4A934218D07B681B681C4A38
:105A1800934213D07B681B68B3F1804F0ED07B682C
:105A28001B68184A934209D07B681B68164A934240
:105A380004D07B681B68154A934211D17B681B68A8
:105A48009B6803F00703FB60FB68062B10D07B689C
:105A58001B681A687B681B6842F001021A6007E03D
:105A68007B681B681A687B681B6842F001021A6031
:105A7800002318461437BD4680BC7047002C0140EF
:105A8800003401400004004000080040000C0040C1
:105A980080B582B000AF78607B68002B01D101230C
:105AA80041E07B6893F83D30DBB2002B06D17B6880
:105AB800002283F83C20786800F039F87B680222DD
:105AC80083F83D207B681A687B68043319461046C2
